:100000000C942A000C9447000C9447000C94470071
:100010000C9447000C9447000C9447000C94470044
:100020000C9447000C9447000C9447000C94470034
:100030000C9447000C9447000C9447000C94470024
:100040000C9447000C9447000C9447000C94470014
:100050000C94470011241FBECFE5D8E0DEBFCDBF12
:1000600010E0A0E6B0E0E4EAF7E002C005900D92EF
:10007000A43CB107D9F720E0A4ECB0E001C01D9288
:10008000A03DB207E1F70E9499030C94D0030C94B1
:100090000000E199FECF9FBB8EBB8CB381608CBB0F
:1000A0008DB30895E199FECF9FBB8EBB6DBB8CB322
:1000B00084608CBB8CB382608CBB089581B38C63ED
:1000C00081BB87B38F7087BB88B3806F88BB08956F
:1000D000CF93DF93CDB7DEB760970FB6F894DEBF4E
:1000E0000FBECDBF80E1E0E6F0E0DE0111960190A9
:1000F0000D928A95E1F780E090E05AC01816190633
:1001000024F422B3246022BB03C022B32B7F22BB82
:100110001816190624F022B3286022BB03C022B3AC
:10012000277F22BB8230910524F422B3206122BBB9
:1001300003C022B32F7E22BB8330910524F422B367
:10014000206222BB03C022B32F7D22BBB49908C01A
:10015000E1E0F0E0EC0FFD1FE80FF91F80812DC0FA
:10016000B59909C00496E1E0F0E0EC0FFD1FE80F3F
:10017000F91F808122C0B69909C00896E1E0F0E03D
:10018000EC0FFD1FE80FF91F808117C0B79909C058
:100190000C96E1E0F0E0EC0FFD1FE80FF91F808105
:1001A0000CC0EFE9FFE03197F1F700C000000196C5
:1001B000843091050CF4A2CF80E060960FB6F894DD
:1001C000DEBF0FBECDBFDF91CF9108959BB39D7F62
:1001D0009BBB882324F49BB390649BBB03C09BB35D
:1001E0009F7B9BBB86FF04C09BB390629BBB03C0FD
:1001F0009BB39F7D9BBB85FF04C09BB390619BBB62
:1002000003C09BB39F7E9BBB84FF04C09BB39860DD
:100210009BBB03C09BB3977F9BBB9BB394609BBB73
:10022000EFE9FFE03197F1F700C000009BB39B7F3F
:100230009BBBEFE9FFE03197F1F700C0000083FFBF
:1002400004C09BB390649BBB03C09BB39F7B9BBBD1
:1002500082FF04C09BB390629BBB03C09BB39F7D96
:100260009BBB81FF04C09BB390619BBB03C09BB34E
:100270009F7E9BBB80FF04C08BB388608BBB03C099
:100280008BB3877F8BBB8BB384608BBB8FE99FE085
:100290000197F1F700C000008BB38B7F8BBBEFE9B8
:1002A000FFE03197F1F700C0000008958AB38E6730
:1002B0008ABB83E00E94E6008FE79EE30197F1F797
:1002C00000C0000083E00E94E6008FE79EE30197F4
:1002D000F1F700C0000083E00E94E6008FE79EE394
:1002E0000197F1F700C0000082E00E94E60088E27A
:1002F0000E94E60088E00E94E60081E00E94E6009D
:1003000086E00E94E6008CE00E94E6009FEF29EF65
:1003100080E0915020408040E1F700C00000089547
:100320009BB392609BBB882324F49BB390649BBBDC
:1003300003C09BB39F7B9BBB86FF04C09BB39062B3
:100340009BBB03C09BB39F7D9BBB85FF04C09BB33E
:1003500090619BBB03C09BB39F7E9BBB84FF04C08B
:100360009BB398609BBB03C09BB3977F9BBB9BB326
:1003700094609BBBEFE9FFE03197F1F700C000000C
:100380009BB39B7F9BBBEFE9FFE03197F1F700C088
:10039000000083FF04C09BB390649BBB03C09BB36E
:1003A0009F7B9BBB82FF04C09BB390629BBB03C03F
:1003B0009BB39F7D9BBB81FF04C09BB390619BBBA4
:1003C00003C09BB39F7E9BBB80FF04C08BB3886040
:1003D0008BBB03C08BB3877F8BBB8BB384608BBB22
:1003E0008FE99FE00197F1F700C000008BB38B7F8E
:1003F0008BBBEFE9FFE03197F1F700C000000895F3
:100400000F931F93CF938C01C0E003C00E94900113
:10041000CF5FF801EC0FF11D80818111F7CFCF91F3
:100420001F910F910895CF93DF938091C500843081
:1004300009F05EC0C091C600D0E0E09782E390E092
:100440000E94490090E0C817D907A1F5C091C700E4
:10045000D0E0E09783E390E00E94490090E0C81765
:10046000D90741F5C091C800D0E0E09784E390E05F
:100470000E94490090E0C817D907E1F4C091C90073
:10048000D0E0E09785E390E00E94490090E0C81733
:10049000D90781F485B3826085BB81E00E94E600C4
:1004A00080E80E94E60080E790E00E94000210923F
:1004B000C5001EC081E00E94E60080E80E94E600C0
:1004C0008FE790E00E94000285B3816085BB2FEF2B
:1004D0008BE792E9215080409040E1F700C0000096
:1004E00085B38E7F85BB80EC0E94E6001092C5002C
:1004F000DF91CF91089580E00BC0E82FF0E0EA5340
:10050000FF4F9081903319F01092C50003C08F5FA8
:100510008A3098F38091C500882301F160E082E37E
:1005200090E00E94520060E083E390E00E9452005D
:1005300060E084E390E00E94520060E085E390E098
:100540000E94520081E00E94E60081E990E00E9452
:10055000000280EC0E94E6001092C5000895CF933F
:10056000DF930E9468008D3209F4E0C038F48A32CB
:1005700009F461C08B3209F070C0D8C08D3309F422
:10058000D5C0833609F4D2C08F3209F066C080919D
:10059000C400811124C085B3816085BB2FEF8BE738
:1005A00092E9215080409040E1F700C0000085B3FF
:1005B0008E7F85BB81E00E94E60080E80E94E60015
:1005C00082EA90E00E9400028CE00E94E600109215
:1005D000C5008091C4008F5F8093C400A7C08130A4
:1005E00009F0A4C0C6ECD0E06881605382E390E0DB
:1005F0000E9452006981605383E390E00E945200A0
:100600006A81605384E390E00E9452006B816053E2
:1006100085E390E00E94520081E00E94E60080E8BD
:100620000E94E60081E990E00E9400021092C5005D
:100630001092C4007BC0A99B79C085B38D7F85BB18
:1006400081E00E94E60080E80E94E60085EB90E0F1
:100650000E9400021092C50069C08091C5008111FE
:1006600012C0A99910C080EC0E94E6008AE20E94A4
:1006700090010E9468008093C6008091C5008F5F42
:100680008093C50053C0813079F4A9990DC08AE2E6
:100690000E9490010E9468008093C7008091C5006D
:1006A0008F5F8093C50042C0823079F4A9990DC054
:1006B0008AE20E9490010E9468008093C8008091A5
:1006C000C5008F5F8093C50031C0833079F4A9994C
:1006D0000DC08AE20E9490010E9468008093C900C8
:1006E0008091C5008F5F8093C50020C08A30C0F420
:1006F000A99B16C0811103C080EC0E94E6008AE22B
:100700000E949001C091C500D0E00E946800CA53C9
:10071000DF4F88838091C5008F5F8093C50006C03E
:100720008A3021F40E947B021092C500DF91CF91A4
:1007300008950E9456010E945E0084B3816084BBCC
:1007400084B3826084BB80E80E94E60085EB90E081
:100750000E940002C0E021C08091C400811107C046
:100760008091C500843019F4A99B0E9413020E9455
:1007700068008823E1F30E94AF0285B3816085BBE6
:100780002FEF89E698E1215080409040E1F700C0CA
:10079000000085B38E7F85BBCF5FC430E8F2DACF2F
:0407A000F894FFCFFB
:1007A4003738392F3435362A3132332D63303D2BE7
:1007B4004C6F636B6572206973206F70656E0057B0
:1007C400726F6E672C2074727920616761696E2183
:1007D4000050617373776F7264204368616E67655C
:1007E4006400456E746572206E6577207061737362
:1007F400776F726400456E7465722050617373770D
:040804006F726400AB
:00000001FF
